1DIEGO ARMANDO RODRIGUEZ       KR 19N181 81                                                                    BOGOTA D.C.                   CUNDINAMARCA                  5622000       SEDE ADMINISTRATIVA 00028000880001000021215301/08/2017INMEDIATO 000000004000000000000000000000000000000000000000039CV10000016000002000000080012640 0000000000000000030
2000000010214MANEJO ENE-ENE                00000000000000000000000040000000000000000000000 DE 0100000
2000000010314MANEJO FEB-FEB                00000000000000000000000040000000000000000000000 DE 0100000
2000000010414MANEJO MAR-MAR                00000000000000000000000040000000000000000000000 DE 0100000
2000000010514MANEJO ABR-ABR                00000000000000000000000040000000000000000000000 DE 0100000
2000000010614MANEJO MAY-MAY                00000000000000000000000040000000000000000000000 DE 0100000
2000000010714MANEJO JUN-JUN                00000000000000000000000040000000000000000000000 DE 0100000
2000000010814MANEJO JUL-JUL                00000000000000000000000040000000000000000000000 DE 0100000
2000000010914MANEJO AGO-AGO                00000000000000000000000040000000000000000000000 DE 0100000
2000000011014MANEJO SEP-SEP                00000000000000000000000040000000000000000000000 DE 0100000
2000000011114MANEJO OCT-OCT                00000000000000000000000040000000000000000000000 DE 0100000
2000000011214MANEJO NOV-NOV                00000000000000000000000040000000000000000000000 DE 0100000
2000000010115MANEJO DIC-DIC                00000000000000000000000040000000000000000000000 DE 0100000
2000000010215MANEJO ENE-ENE                00000000000000000000000042000000000000000000000 DE 0100000
2000000010315MANEJO FEB-FEB                00000000000000000000000042000000000000000000000 DE 0100000
2000000010415MANEJO MAR-MAR                00000000000000000000000042000000000000000000000 DE 0100000
2000000010515MANEJO ABR-ABR                00000000000000000000000042000000000000000000000 DE 0100000
2000000010615MANEJO MAY-MAY                00000000000000000000000042000000000000000000000 DE 0100000
2000000010715MANEJO JUN-JUN                00000000000000000000000042000000000000000000000 DE 0100000
2000000010815MANEJO JUL-JUL                00000000000000000000000042000000000000000000000 DE 0100000
2000000010915MANEJO AGO-AGO                00000000000000000000000042000000000000000000000 DE 0100000
2000000011015MANEJO SEP-SEP                00000000000000000000000042000000000000000000000 DE 0100000
2000000011115MANEJO OCT-OCT                00000000000000000000000042000000000000000000000 DE 0100000
2000000011215MANEJO NOV-NOV                00000000000000000000000042000000000000000000000 DE 0100000
2000000010116MANEJO DIC-DIC                00000000000000000000000044500000000000000000000 DE 0100000
2000000010216MANEJO ENE-ENE                00000000000000000000000044840000000000000000000 DE 0100000
2000000010316MANEJO FEB-FEB                00000000000000000000000044840000000000000000000 DE 0100000
2000000010416MANEJO MAR-MAR                00000000000000000000000044840000000000000000000 DE 0100000
2000000010516MANEJO ABR-ABR                00000000000000000000000044840000000000000000000 DE 0100000
2000000010616MANEJO MAY-MAY                00000000000000000000000044840000000000000000000 DE 0100000
2000000010716MANEJO JUN-JUN                00000000000000000000000044840000000000000000000 DE 0100000
2000000010816MANEJO JUL-JUL                00000000000000000000000044840000000000000000000 DE 0100000
2000000010916MANEJO AGO-AGO                00000000000000000000000044840000000000000000000 DE 0100000
2000000011016MANEJO SEP-SEP                00000000000000000000000044840000000000000000000 DE 0100000
2000000011116MANEJO OCT-OCT                00000000000000000000000044840000000000000000000 DE 0100000
2000000011216MANEJO NOV-NOV                00000000000000000000000044840000000000000000000 DE 0100000
2000000010117MANEJO DIC-DIC                00000000000000000000000047510000000000000000000 DE 0100000
2000000010217MANEJO ENE-ENE                00000000000000000000000047510000000000000000000 DE 0100000
2000000010317MANEJO FEB-FEB                00000000000000000000000047510000000000000000000 DE 0100000
2000000010417MANEJO MAR-MAR                00000000000000000000000047510000000000000000000 DE 0100000
2000000010517MANEJO ABR-ABR                00000000000000000000000047510000000000000000000 DE 0100000
2000000010617MANEJO MAY-MAY                00000000000000000000000047510000000000000000000 DE 0100000
2000000010717MANEJO JUN-JUN                00000000000000000000000047510000000000000000000 DE 0100000
2000000010817MANEJO JUL-JUL                00000000000000000000000047510000000000000000000 DE 0100000
2000015010416SEG DE VIDA Y DESEMPLEO       000000000100000000000000000000000000000100000        00000
2009148300416DIFERIDO CAPITAL              00000029169630000000000607700600000019446420432 DE 4800210
2000938010516SEG DE VIDA Y DESEMPLEO       000000000100000000000000000000000000000100000        00000
2001215010616SEG DE VIDA Y DESEMPLEO       000000000100000000000000000000000000000100000        00000
2000542010716SEG DE VIDA Y DESEMPLEO       000000000100000000000000000000000000000100000        00000
2005357010816SEG DE VIDA Y DESEMPLEO       000000000100000000000000000000000000000100000        00000
2000138010916SEG DE VIDA Y DESEMPLEO       000000000100000000000000000000000000000100000        00000
2000516011016SEG DE VIDA Y DESEMPLEO       000000000100000000000000000000000000000100000        00000
2005231011116SEG DE VIDA Y DESEMPLEO       000000000100000000000000000000000000000100000        00000
2005519011216SEG DE VIDA Y DESEMPLEO       000000000100000000000000000000000000000100000        00000
2000919010117SEG DE VIDA Y DESEMPLEO       000000000150000000000000000000000000000150000        00000
2000537010217SEG DE VIDA Y DESEMPLEO       000000000150000000000000000000000000000150000        00000
2000738010317SEG DE VIDA Y DESEMPLEO       000000000150000000000000000000000000000150000        00000
2001422010417SEG DE VIDA Y DESEMPLEO       000000000150000000000000000000000000000150000        00000
2004622010517SEG DE VIDA Y DESEMPLEO       000000000150000000000000000000000000000150000        00000
2003244010617SEG DE VIDA Y DESEMPLEO       000000000150000000000000000000000000000150000        00000
2004304010717SEG DE VIDA Y DESEMPLEO       000000000150000000000000000000000000000150000        00000
2005926010817SEG DE VIDA Y DESEMPLEO       000000000150000000000000000000000000000150000        00000
3CREDITO EN MORA, SE REPORTARA NEGATIVAMENTE A LAS CENTRALES DE RIESGO, EN LAS   CUALES PERMANECERA  DURANTE EL TIEMPO QUE INDICA LA LEY.
40000000240002020024000000032960271203296000000581000078000000000000000000000001093861000000005372679000000000000000000000000475100000000000000000000000000150000000000000000000000000091155090000000000000000000000000000000000000000000000000000105928446000000169768772000000018598200000000008177006000000588091718000000003936276
501/08/2017INMEDIATO 0008800010000212153DIEGO ARMANDO RODRIGUEZ       0000397701009003100302001318800010000212153
6000000000000000000000000000000000000000000000000000000000000000000
1NOHORA DEL PILA VARGAS        JANA578@HOTMAIL.COM                                                             BOGOTA D.C.                   CUNDINAMARCA                  4423043       SEDE ADMINISTRATIVA 00028000880001000020275801/08/2017INMEDIATO 000000001000000000000000000000000000000000000000038CF10000003000002000000052327561 0000000000000002820
2000000310509MANEJO MAY-MAY                00000000000000000000000030000000000000000000000 DE 0100000
2000000300609MANEJO JUN-JUN                00000000000000000000000030000000000000000000000 DE 0100000
2000000310709MANEJO JUL-JUL                00000000000000000000000030000000000000000000000 DE 0100000
2000000300909MANEJO SEP-SEP                00000000000000000000000030000000000000000000000 DE 0100000
2000000311009MANEJO OCT-OCT                00000000000000000000000030000000000000000000000 DE 0100000
2000000301109MANEJO NOV-NOV                00000000000000000000000030000000000000000000000 DE 0100000
2000000310710MANEJO JUL-JUL                00000000000000000000000030000000000000000000000 DE 0100000
2000000310810MANEJO AGO-AGO                00000000000000000000000030000000000000000000000 DE 0100000
2000000300910MANEJO SEP-SEP                00000000000000000000000030000000000000000000000 DE 0100000
2000000311010MANEJO OCT-OCT                00000000000000000000000030000000000000000000000 DE 0100000
2000000301110MANEJO NOV-NOV                00000000000000000000000030000000000000000000000 DE 0100000
2000000311210MANEJO DIC-DIC                00000000000000000000000030000000000000000000000 DE 0100000
2000000310111MANEJO ENE-ENE                00000000000000000000000030000000000000000000000 DE 0100000
2000000280211MANEJO FEB-FEB                00000000000000000000000030000000000000000000000 DE 0100000
2000000310311MANEJO MAR-MAR                00000000000000000000000030000000000000000000000 DE 0100000
2000000300411MANEJO ABR-ABR                00000000000000000000000030000000000000000000000 DE 0100000
2000000310511MANEJO MAY-MAY                00000000000000000000000030000000000000000000000 DE 0100000
2000000300611MANEJO JUN-JUN                00000000000000000000000030000000000000000000000 DE 0100000
2000000310711MANEJO JUL-JUL                00000000000000000000000030000000000000000000000 DE 0100000
2000000310811MANEJO AGO-AGO                00000000000000000000000030000000000000000000000 DE 0100000
2000000300911MANEJO SEP-SEP                00000000000000000000000030000000000000000000000 DE 0100000
2000000311011MANEJO OCT-OCT                00000000000000000000000030000000000000000000000 DE 0100000
2000000301111MANEJO NOV-NOV                00000000000000000000000030000000000000000000000 DE 0100000
2000000311211MANEJO DIC-DIC                00000000000000000000000030000000000000000000000 DE 0100000
2000000010212MANEJO ENE-ENE                00000000000000000000000030000000000000000000000 DE 0100000
2000000010312MANEJO FEB-FEB                00000000000000000000000030000000000000000000000 DE 0100000
2000000010412MANEJO MAR-MAR                00000000000000000000000030000000000000000000000 DE 0100000
2000000010512MANEJO ABR-ABR                00000000000000000000000030000000000000000000000 DE 0100000
2000000010612MANEJO MAY-MAY                00000000000000000000000030000000000000000000000 DE 0100000
2000000010712MANEJO JUN-JUN                00000000000000000000000030000000000000000000000 DE 0100000
2000000010812MANEJO JUL-JUL                00000000000000000000000030000000000000000000000 DE 0100000
2000000010912MANEJO AGO-AGO                00000000000000000000000030000000000000000000000 DE 0100000
2000000011012MANEJO SEP-SEP                00000000000000000000000030000000000000000000000 DE 0100000
2000127101212GASTOS ADMIN COBRANZ          000000000010700000000000000000000000000010700        00000
3
40000000240002020024000000032960271203296000000303368386000000000000000000000002145114000000000000000000000000000000000000000000000000000000000000000000000000000000000000000000000000099691202000000000000000000000000000000000000000000000000000188454764000000007456834000000009900000000000000010700000000305513500000000003055135
501/08/2017INMEDIATO 0008800010000202758NOHORA DEL PILA VARGAS        0000387701009003100302001318800010000202758
6000000000000000000000000000000000000000000000000000000000000000000
1SANDRA TAUTA                  KR 78 Ñ 45 -74 SUR                                                              BOGOTA D.C.                   CUNDINAMARCA                  3158376759    SEDE ADMINISTRATIVA 00028000880001999109977601/08/201716/08/2017000000000150000000000000321400000000000321400110967CV20000000450002000000051874127C0000000793561210000
2001033250717GRACIAS POR SU PAGO           000000000000000000000005038800000000000000000        00000
2000000010817MANEJO JUL-JUL                00000000000000000000000047510000000000000000000 DE 0100000
2003944010817SEG DE VIDA Y DESEMPLEO       000000000150000000000000000000000000000150000        00000
2003533090417COLSUBSIDIO PRIMERA DE MAYO   00000000678270000000000134701700000000134701701 DE 0500202
2006090290417COLSUBSIDIO PRIMERA DE MAYO   00000000274170000000000068542500000000000000000 DE 0400202
2007492230517COLSUBSIDIO PRIMERA DE MAYO   00000000536370000000000134092500000000134092501 DE 0400202
2008166260617COLSUBSIDIO PRIMERA DE MAYO   00000000387580000000000077516000000000232548003 DE 0500202
2005072280717COLSUBSIDIO PRIMERA DE MAYO   00000000461660000000000115415000000000346245003 DE 0400202
3RECUERDE REALIZAR EL PAGO OPORTUNO DE SU OBLIGACION PARA EVITAR SER REPORTADO   NEGATIVAMENTE A     CENTRALES DE RIESGO. SI LA CUOTA ES MAYOR A LO QUE PUEDE CANCELAR, LLAMENOS A LA LINEA 7457900 OPC 2
40000000240002020024000000032960271203296000000014200749000000004616600000000000026547000000000248359000000000000000000000000475100000000005038800000000000150000000000000000000000000000000000000000001154150000000004148527000000000000000000000000026547000000000248359000000000475100000000000150000000000014678555000000000062027
501/08/201716/08/20170008800019991099776SANDRA TAUTA                  1109677701009003100302001318800019991099776
6000000000000000000000000000000000000000000000000000000000000000000
1ORLANDO VIDAL                 CR 136 N 32 D 71 SUBA LA TOSCANA                                                BOGOTA D.C.                   CUNDINAMARCA                  3162283747    SEDE ADMINISTRATIVA 00028000880001999109964401/08/201716/08/2017000000000150000000000001557000000000001557000110966CV20000000450002000000079245532C0000000523379040000
2005207170717GRACIAS POR SU PAGO           000000000000000000000015230000000000000000000        00000
2000000010817MANEJO JUL-JUL                00000000000000000000000047510000000000000000000 DE 0100000
2003943010817SEG DE VIDA Y DESEMPLEO       000000000150000000000000000000000000000150000        00000
2004990200717SUPERM TIBABUYES COLSUB       00000001271540000000001271510400000000000000000 DE 0100202
3RECUERDE REALIZAR EL PAGO OPORTUNO DE SU OBLIGACION PARA EVITAR SER REPORTADO   NEGATIVAMENTE A     CENTRALES DE RIESGO. SI LA CUOTA ES MAYOR A LO QUE PUEDE CANCELAR, LLAMENOS A LA LINEA 7457900 OPC 2
40000000240002020024000000032960271203296000000015229704000000012715400000000000000000000000000102738000000000000000000000000475100000000015230000000000000150000000000000000000000000000000000000000012715104000000000000000000000000000000000000000000000000000000102738000000000475100000000000150000000000013442942000000000134430
501/08/201716/08/20170008800019991099644ORLANDO VIDAL                 1109667701009003100302001318800019991099644
6000000000000000000000000000000000000000000000000000000000000000000
1ADRIANA NIEVES                CALLE 1 BIS 1 09 ESTE                                                           BOGOTA D.C.                   CUNDINAMARCA                  3133492799    SEDE ADMINISTRATIVA 00028000880001999109911501/08/2017INMEDIATO 000000000150000000000010948400000000001706300110962CV20000000450002000000052900696C0000000796528220030
2000000010717MANEJO JUN-JUN                00000000000000000000000047510000000000000000000 DE 0100000
2000000010817MANEJO JUL-JUL                00000000000000000000000047510000000000000000000 DE 0100000
2003270240117AVANCE EFECTIVO CUPOEFECTIV   00000000400000000000000015521000000000263857217 DE 2400240
3CREDITO EN MORA, SE REPORTARA NEGATIVAMENTE A LAS CENTRALES DE RIESGO, EN LAS   CUALES PERMANECERA  DURANTE EL TIEMPO QUE INDICA LA LEY.
40000000240002020024000000032960271203296000000003503314000000000000000000000000001862000000000071271000000000000000000000000475100000000000000000000000000000000000000000000000000000000155210000000000000000000000000000000000000000155210000000000003716000000000148639000000000950200000000000000000000000004051547000000000014130
501/08/2017INMEDIATO 0008800019991099115ADRIANA NIEVES                1109627701009003100302001318800019991099115
6000000000000000000000000000000000000000000000000000000000000000000
1FABIO CASTANEDA               CR 8 N 93 A 38 SUR BARRIO VIRREY                                                BOGOTA D.C.                   CUNDINAMARCA                  3125165742    SEDE ADMINISTRATIVA 00028000880001999109392801/08/2017INMEDIATO 000000000150000000000005288400000000004500000110907CV20000000450002000000019114591C0000000522869450030
2000000010717MANEJO JUN-JUN                00000000000000000000000047510000000000000000000 DE 0100000
2000000010817MANEJO JUL-JUL                00000000000000000000000047510000000000000000000 DE 0100000
2001837010717SEG DE VIDA Y DESEMPLEO       000000000150000000000000000000000000000150000        00000
2003918010817SEG DE VIDA Y DESEMPLEO       000000000150000000000000000000000000000150000        00000
2005182190317COLSUBSIDIO SANTA LIBRADA     00000001157860000000000177024300000000177024201 DE 0600202
3CREDITO EN MORA, SE REPORTARA NEGATIVAMENTE A LAS CENTRALES DE RIESGO, EN LAS   CUALES PERMANECERA  DURANTE EL TIEMPO QUE INDICA LA LEY.
40000000240002020024000000032960271203296000000008909972000000000000000000000000054026000000000122403000000000000000000000000475100000000000000000000000000150000000000000000000000000004502293000000000000000000000001770243000000000000000000000000086995000000000331528000000000950200000000000300000000000009711501000000000079413
501/08/2017INMEDIATO 0008800019991093928FABIO CASTANEDA               1109077701009003100302001318800019991093928
6000000000000000000000000000000000000000000000000000000000000000000
